S00C00004D6574656F2E733337EE
S214000000C00A00203D0B0000A5160200A51602003F
S214000010C5320200A5160200A5160200A5160200AB
S214000020A5160200A5160200A5160200A5160200D7
S214000030A5160200A516020045140200A516020029
S214000040A5160200A5160200A5160200A5160200B7
S214000050A5160200A5160200A5160200A5160200A7
S214000060A5160200A5160200A5160200A516020097
S2140000704F37020051A20000A5160200A516020086
S214000080A5160200A5160200A5160200A516020077
S214000090A5160200A5160200A5160200A516020067
S2140000A0A5160200A5160200A5160200A516020057
S2140000B0A516020081F90100A516020055030200EC
S2140000C009EE020005EE020051FB010015EE0200EB
S2140000D00DEE02002D03020011EE0200B503020031
S2140000E0E5DE0100B5E0010095030200A51602005A
S2140000F021320200A5160200A5160200A51602006F
S214000100A5160200A5160200A5160200A5160200F6
S214000110A5160200A5160200A5160200A5160200E6
S214000120A5160200A5160200A5160200A5160200D6
S214000130A5160200A5160200A5160200A5160200C6
S214000140013800D0FCE7704730B58FB001900091C1
S214000150D9A3D3E90023CDE90A23D9A3D3E9002301
S214000160CDE90823009B5B6A184620F011FB4FF090
S21400017000024FF0804320F09FFC02460B461046DC
S21400018019464FF00002C24B20F0B4F902460B4667
S214000190CDE90623DDE90623DDE9060120F062FB52
S2140001A002460B4614461D46009BB3F9103018460F
S2140001B020F0EEFA02460B462046294620F052FB77
S2140001C002460B46104619464FF00002B14B20F08F
S2140001D073FC02460B46CDE90423009BB3F90E30B0
S2140001E0184620F0D5FADDE9062320F03BFB024650
S2140001F00B461046194602460B4620F07DF902468D
S2140002000B46DDE9040120F077F902460B46CDE9FE
S21400021004234FF00002A04BDDE9040120F04CFC63
S21400022002460B4614461D46009BB3F90C30184692
S21400023020F0AEFA4FF00002984B20F013FB024677
S2140002400B462046294620F057F902460B46CDE9D4
S2140002500423009BB3F90A30184620F099FADDE92A
S214000260062320F0FFFA02460B4610461946DDE943
S214000270062320F0F7FA02460B46104619464FF0C2
S2140002800002874B20F018FC02460B46CDE90223FD
S214000290009BB3F90830184620F07AFADDE9062309
S2140002A020F0E0FA02460B4610461946DDE9022326
S2140002B020F022F902460B46104619464FF000027F
S2140002C0774B20F0F9FB02460B46CDE906234FF0AC
S2140002D00002704BDDE9060120F0EEFB02460B46FD
S2140002E0104619464FF000026E4B20F005F9024604
S2140002F00B4614461D46009BDB88184620F038FA4D
S21400030002460B462046294620F0ACFA02460B462B
S214000310CDE906234FF000024FF00003DDE90601A9
S21400032020F030FD0346002B00F0CE80019B1B68BA
S214000330184620F01DFA02460B464FF000005A49B8
S21400034020F0D8F802460B46CDE90C234FF0000209
S214000350564BDDE9040120F0AFFB02460B46DDE913
S2140003600C0120F0C7F802460B461046194646A375
S214000370D3E9002320F076FA02460B4610461946CB
S214000380DDE9062320F098FB02460B46CDE90C2358
S214000390009BB3F91630184620F0FAF9DDE90C2375
S2140003A020F060FA02460B4610461946DDE90C239B
S2140003B020F058FA02460B46104619464FF0000247
S2140003C03B4B20F079FB02460B46CDE90623009B0B
S2140003D0B3F91430184620F0DBF9DDE90C2320F0E1
S2140003E041FA02460B46104619464FF00002294BCA
S2140003F020F062FB02460B46CDE90423DDE9042328
S214000400DDE9060120F078F802460B4614461D4644
S214000410009BB3F91230184620F0BAF902460B4694
S2140004202046294620F068F802460B461046194634
S2140004304FF000021F4B20F03FFB02460B46DDE963
S2140004400C0120F059F802460B46CDE90C23DDE9F5
S2140004500A23DDE90C0120F077FC0346002B04D0CC
S214000460DDE90A23CDE90C2332E0DDE90823DDE9E6
S2140004700C0120F087FC0346002B29D0DDE9082379
S214000480CDE90C2324E000BF00000000006AB8405D
S2140004900040EF400000E040000010400000F04048
S2140004A0000020410000F03F000030410000B04056
S2140004B00000E0410000304000000000004CDD403D
S2140004C00000000000DBFA40DDE90A23CDE90C233A
S2140004D0DDE90C2343EC172BB0EE470AF0EE670A73
S2140004E00FB030BD0000000070B505463E4C8AB027
S2140004F020B10023008823600FF0CAF93B482DF096
S214000500EBFF3B4E3B4B304633603B4B736028F073
S21400051096FF0021304619F007FD31A3D3E90023EA
S214000520A062C4E9062328F092FFD4E90623194303
S21400053010434FF0FF33C4E90601CDE900014FF048
S214000540FF32A06A2EF02FF802224FF0FF31A06A89
S2140005502EF02EF801200EF05BFF4FF40073002201
S2140005602649A06A2EF07CF8B0F5007F36D100232D
S2140005709422CDE9073309933C23CDE90332059352
S2140005809623A06A03A9069319F01CFE25B3287CBF
S2140005900FF0D6FB0546E0B9A06A2EF042F90FF040
S2140005A077FB0EF017FF20B14FF4807000210CF09F
S2140005B025FF0EF01FFF20B14FF4006000210CF065
S2140005C01DFF012019F004FD0D4A0E49A06A28F00F
S2140005D034FF28460AB070BDFF20D9E70725F8E7A4
S2140005E009D501552000000030110020690345ECB4
S2140005F050220020E9FA0000442200204420002077
S214000600E39302002394020010B5054C237833B917
S214000610044B13B1044800E000BF0123237010BD53
S21400062080130020000000006C3D030008B5034B5B
S2140006301BB10349034800E000BF08BD00000000EE
S214000640841300206C3D0300A3F5803A704700BF7A
S214000650174B002B08BF134B9D46FFF7F5FF0021F5
S2140006608B460F461348144A121A2EF020FC0E4BE7
S214000670002B00D098470D4B002B00D09847002049
S214000680002104000D000D48002802D00C4800E0B0
S21400069000BF20F0A5FD2000290009F027FC20F06F
S2140006A08BFD00BF000008000000000000000000F6
S2140006B0C00A00205010002074280020000000000F
S2140006C00000000082B003468DF807309DF9073021
S2140006D0002B0CDB9DF8073003F01F0205499DF93F
S2140006E007305B09012000FA02F241F8232000BF20
S2140006F002B0704700E100E082B003468DF8073094
S2140007009DF90730002B0DDB9DF8073003F01F0224
S21400071006499DF907305B09012000FA02F26033B2
S21400072041F8232000BF02B0704700BF00E100E0A0
S21400073008B501F08BF921F09BF82A4B1B6F23F0CC
S2140007400703284A43F00303136721F09EF8264B5D
S2140007509B6A03F00203002B05D1234B03F50053DD
S2140007601A46012393621F4BD3F8203123F003036C
S2140007701C4A43F00203C2F820311A4BD3F8243146
S21400078023F00703174A43F00203C2F82431154B3F
S214000790D3F8403123F00303124A43F00203C2F8B1
S2140007A04031104BD3F8603123F003030D4A43F079
S2140007B00203C2F860310B4BD3F8403223F0030338
S2140007C0084A43F00203C2F84032064BD3F8003220
S2140007D023F00703034A43F00203C2F80032002363
S2140007E0184608BD0080005000C00050024B1B6831
S2140007F01B0CDBB2184670470080E00F00B583B0D4
S214000800FFF7F4FF0346012B1ED1114B5B6E03F47A
S2140008108023002B0CBF012300238DF807300C4BE0
S21400082003F580531A464FF480235366094B04227F
S2140008301A609DF80730002B06D0054B03F50053D1
S2140008401A464FF48023536600BF03B05DF804FBDE
S214000850008000502020015000B585B001900E2386
S2140008600393019B202B49DC019B002B77DD019B2A
S214000870013B1F2B73D801A252F823F00509000094
S214000880170900005F0900005F0900005F0900000B
S2140008905F0900005F090000290900005F090000E9
S2140008A05F0900005F0900005F0900005F090000A3
S2140008B05F0900005F0900005F0900005F09000093
S2140008C05F0900005F0900005F0900005F09000083
S2140008D05F0900005F0900005F0900005F09000073
S2140008E05F0900005F0900005F0900005F09000063
S2140008F05F0900005F0900003B090000019B402BD8
S21400090024D02CE0002304220421002021F097F8B4
S2140009100023039324E0002304220421002021F076
S2140009208EF8002303931BE00023042204210020FA
S21400093021F085F80023039312E00023042204210B
S214000940012021F07CF80023039309E00023042211
S2140009500021002021F073F80023039300E000BF7D
S214000960039B184605B05DF804FB00BF82B0034643
S21400097000918DF807309DF80730002B0AD09DF8BF
S2140009800730012B06D09DF80730022B02D09DF8C9
S2140009900730032B08489DF807200121009B99404B
S2140009A013465B0013441B01034403F50053103346
S2140009B0196000BF02B0704700C0035082B0034603
S2140009C000918DF807309DF80730002B0AD09DF86F
S2140009D00730012B06D09DF80730022B02D09DF879
S2140009E00730032B08489DF807200121009B9940FB
S2140009F013465B0013441B01034403F58053103376
S214000A00196000BF02B0704700C0035030B589B00F
S214000A10454B01AC1D460FCD0FC495E8070084E892
S214000A20070001213A2000F0BBFB0121282000F03E
S214000A30B7FB01238DF812303C4B039301AB1946EC
S214000A403B4802F0C1FD012304220021022020F0D1
S214000A50F6FF002301220121022020F0F0FF0123EF
S214000A6004220221022020F0EAFF012304220321AF
S214000A70022020F0E4FF2F4B4FF00212C3F830267E
S214000A802C4B2D4AC3F82C262A4B0222C3F83426B8
S214000A90284B1C22C3F81C264FF4487007F072FB44
S214000AA020F0F2FD142007F06DFB20F0F4FD23206B
S214000AB007F068FB20F0E8FDB9211D4821F046F953
S214000AC020F0E9FD002300220021022020F0B7FFDD
S214000AD0002300220121022020F0B1FF0123002282
S214000AE00221022020F0ABFF012300220321022076
S214000AF020F0A5FF0E4802F0EBFD0E4B0022C3F8D7
S214000B0030260C4B0022C3F82C260A4B0022C3F8D2
S214000B103426084B0022C3F81C260021282000F0AB
S214000B203FFB00BF09B030BDC8F1020000127A00DA
S214000B3000C0055000C003500200010000B585B09B
S214000B4000F07EF81F4B039319E0002302930EE09B
S214000B50039B1A68029B9B001A44039B5968029BDE
S214000B609B000B4412681A60029B01330293039B9E
S214000B709B68029A9A42EBD3039B0C330393039B26
S214000B80114A9342E1D3114B019314E000230093E2
S214000B9009E0019B1A68009B9B00134400221A6020
S214000BA0009B01330093019B5B68009A9A42F0D346
S214000BB0019B08330193019B054A9342E6D3FFF756
S214000BC047FD00BF743D0300803D0300803D0300E9
S214000BD0803D030082B003468DF807309DF907304C
S214000BE0002B0CDB9DF8073003F01F0205499DF92A
S214000BF007305B09012000FA02F241F8232000BF0B
S214000C0002B0704700E100E082B003468DF807307E
S214000C109DF90730002B0DDB9DF8073003F01F020F
S214000C2006499DF907305B09012000FA02F260339D
S214000C3041F8232000BF02B0704700BF00E100E08B
S214000C4008B51E4B1E4A9A601C4BD3F888301B4AC8
S214000C5043F47003C2F888301A4B03F580531A46E3
S214000C604FF400439366184B03F500531A464FF0B3
S214000C70FF331366144B03F500531A464FF6DF7323
S214000C805366124B02221A60BFF34F8F00BFBFF3AA
S214000C906F8F00BF0320FFF7B7FF0B4B03F5005322
S214000CA01A464FF44033D3600320FFF793FF064BFA
S214000CB04FF440321A6100BF08BD00BF00ED00E0EF
S214000CC0000000000080005000800044D0ED00E0EE
S214000CD0014B1B68184670475C0B002000B583B0BC
S214000CE0002301930E4B1B6F03F00703032B09D061
S214000CF0032B0ED8012B09D0022B0AD1FFF7E8FFF1
S214000D00019007E0074B1B68019303E0064B019335
S214000D1000E0FEE7019B184603B05DF804FB00BF49
S214000D2000800050540B0020002D310100B583B028
S214000D30FFF7D4FF01900A4B1B6F1B0B03F00F034A
S214000D400093009B0133019AB2FBF3F30193054A2B
S214000D50019B1360019B184603B05DF804FB00BFBF
S214000D6000800050600B0020014B1846704700BF03
S214000D7000B4C404014B1B6818467047540B00208F
S214000D8000B583B00190074A019B1360064B1B6FAA
S214000D9003F00703032B01D1FFF7C8FF00BF03B022
S214000DA05DF804FB540B002000800050014B1846F1
S214000DB0704700BF002D3101014B1B681846704775
S214000DC0580B002084B001900B4B1A68019B13440B
S214000DD00A4A934202D94FF0FF3309E0064B1B68DC
S214000DE00393054B1A68019B1344034A1360039B45
S214000DF0184604B0704700BF640B00200080002037
S214000E0008B5054B1B68054A12681146184618F0C7
S214000E109FFC0346184608BD680B0020880B002080
S214000E2082B0074B9B68DBB20193019B0A3303F049
S214000E301F03012202FA03F3184602B0704700BFF0
S214000E400080E00F84B003468DF807309DF9073028
S214000E50B3F1FF3F04D0002B05D10023039305E038
S214000E60044B039302E0044B039300BF039B184616
S214000E7004B0704721E000F024E000F000B58BB02D
S214000E80039002910192029B0893039B0793019B98
S214000E909B000693069A089907982EF03DF803469D
S214000EA08DF817309DF917301846FFF7CBFF0990DD
S214000EB0099B002B09D1069A089907982DF0C0FFC8
S214000EC00346002B01D0034B0993099B18460BB031
S214000ED05DF804FB10E000F000B585B001900198C5
S214000EE02EF012F803468DF80B309DF90B3018469D
S214000EF0FFF7A8FF0390039B002B0ED1FFF790FF90
S214000F0003461946019820F0F4FB034683F00103DC
S214000F10DBB2002B01D0034B0393039B184605B0AE
S214000F205DF804FB0EE000F008B520F006FD034671
S214000F30014A136000BF08BDDC19002008B5034B4A
S214000F401B68184620F005FD00BF08BDDC19002010
S214000F5008B500BF0421044820F07DFC0346002BA2
S214000F60F8D100BF00BF08BD8440005008B5FFF7A9
S214000F70EFFF044BD3F884309B0903F00303DBB286
S214000F80184608BD00400050054BDB6903F480336B
S214000F90002B14BF01230023DBB21846704700BFA6
S214000FA000000350024B0022DA6300BF704700BF08
S214000FB000000350024B41F67132DA6300BF7047FF
S214000FC000000350014B9B68184670470000035012
S214000FD082B00190024A019B936000BF02B0704746
S214000FE00000035084B0019000230393019BB3F5E7
S214000FF0607F21D0019BB3F5607F34D8019BB3F5A9
S214001000207F29D0019BB3F5207F2CD8019BB3F518
S214001010007F19D0019BB3F5007F24D8019B002BDD
S21400102003D0019BB3F5C07F1DD1124B1B6F1B0B6A
S21400103003F00F03039317E00E4BD3F880301B0921
S21400104003F0030303930FE00A4BD3F890301B0E14
S21400105003F01F03039307E0064B1B6F9B0A03F086
S2140010600103039300E000BF039B0133184604B05E
S214001070704700BF0080005010B582B0019000910C
S214001080019BB3F5607F4BD0019BB3F5607F00F208
S2140010908180019BB3F5207F6BD0019BB3F5207F49
S2140010A078D8019BB3F5007F50D0019BB3F5007F45
S2140010B070D8019B002B03D0019BB3F5C07F69D18C
S2140010C0009B012B0AD0009B022B07D0009B042B11
S2140010D004D0009B082B01D0009B102B00BF20F0F3
S2140010E022FC20F018FC00F065FF2C4B1B6F23F44D
S2140010F07042009B013B1B03284913430B6720F0FB
S2140011008BFB0446FFF732FF0346C3F10203194682
S214001110204620F0D1FB01F0F9F800F057FF3AE046
S214001120009B012B04D0009B022B01D0009B042BBC
S21400113000BF1A4BD3F8803023F03002009B013BEF
S2140011401B0116491343C1F8803024E0009B002B96
S21400115002D0009B202B00BF104BD3F8903023F01A
S214001160F852009B013B1B060C491343C1F8903014
S21400117011E0009B012B01D0009B022B00BF074B08
S2140011801B6F23F48062009B013B9B0203491343C1
S2140011900B6700E000BF00BF02B010BD008000502B
S2140011A000B585B001900B468DF8033000230393FD
S2140011B0019B5B09002B0FD0019B5B09012B02D121
S2140011C00D4B039308E0019B5B09022B02D10B4BEE
S2140011D0039301E00A4B0393019B03F01F03029362
S2140011E09DF803301A460299039820F01BFB00BFB7
S2140011F005B05DF804FB00BF6480005068800050B6
S2140012006082005010B584B0019000230393002341
S2140012100293019BB3F5F06F00F0C282019BB3F519
S214001220F06F00F2C382019BB3F5E06F00F0B2826C
S214001230019BB3F5E06F00F2B982019BB3F5D06F66
S21400124000F0A282019BB3F5D06F00F2AF82019B43
S214001250B3F5C06F00F09282019BB3F5C06F00F249
S214001260A582019BB3F5B06F00F07C82019BB3F5BD
S214001270B06F00F29B82019BB3F5A06F00F06C820A
S214001280019BB3F5A06F00F29182019BB3F5906FBE
S21400129000F05C82019BB3F5906F00F28782019BA1
S2140012A0B3F5806F00F04C82019BB3F5806F00F2BF
S2140012B07D82019BB3F5607F00F03382019BB3F51E
S2140012C0607F00F27382019BB3F5407F00F01C82C2
S2140012D0019BB3F5407F00F26982019BB3F5207F46
S2140012E000F00682019BB3F5207F00F25F82019B2F
S2140012F0B3F5007F00F0F081019BB3F5007F00F2AC
S2140013005582019BB3F5C07F00F0E181019BB3F5E8
S214001310C07F00F24B82019B002B00F0D881019B1E
S214001320B3F5807F00F24282019B202BC0F03E8204
S214001330019B203BE02B00F2398201A252F823F0F9
S214001340CF160000F1160000CF160000F1160000C0
S2140013504117000041170000411700004117000028
S214001360F1160000F11600006517000009170000CE
S2140013707D1700008917000009170000F11600000D
S214001380F1160000F1160000AD170000AD170000C2
S214001390AD170000AD170000AD170000AD17000038
S2140013A0591700004D170000F1160000F116000056
S2140013B0F1160000A117000095170000F1160000B6
S2140013C0AD170000AD170000AD170000AD17000008
S2140013D0AD170000AD170000AD170000AD170000F8
S2140013E0AD170000AD170000AD170000AD170000E8
S2140013F0AD170000CF160000AD170000CF16000096
S214001400CF160000CF16000041170000AD170000F1
S214001410AD170000AD170000AD170000AD170000B7
S214001420AD170000AD170000AD170000AD170000A7
S214001430AD170000AD170000AD170000AD17000097
S214001440CF160000CF160000AD170000AD17000045
S214001450AD170000AD170000AD170000AD17000077
S214001460AD170000AD170000AD170000AD17000067
S214001470AD170000AD170000AD170000AD17000057
S214001480AD170000AD170000AD170000AD17000047
S214001490AD170000AD170000AD170000AD17000037
S2140014A0AD170000AD170000AD170000AD17000027
S2140014B0AD170000AD170000AD170000AD17000017
S2140014C0C5160000AD170000AD170000AD170000F0
S2140014D0AD170000AD170000AD170000AD170000F7
S2140014E0AD170000AD170000AD170000AD170000E7
S2140014F0AD170000AD170000AD170000AD170000D7
S214001500AD170000AD170000AD170000AD170000C6
S214001510AD170000AD170000AD170000AD170000B6
S214001520AD170000AD170000AD170000AD170000A6
S214001530AD170000AD170000AD170000AD17000096
S214001540AD170000AD170000AD170000AD17000086
S214001550AD170000AD170000AD170000AD17000076
S214001560AD170000AD170000AD170000AD17000066
S214001570AD170000AD170000AD170000AD17000056
S214001580AD170000AD170000AD170000AD17000046
S214001590AD170000AD170000AD170000AD17000036
S2140015A0AD170000AD170000AD170000AD17000026
S2140015B0AD170000AD170000AD170000AD17000016
S2140015C0AD170000AD170000AD170000AD17000006
S2140015D0AD170000AD170000AD170000AD170000F6
S2140015E0AD170000AD170000AD170000AD170000E6
S2140015F0AD170000AD170000AD170000AD170000D6
S214001600AD170000AD170000AD170000AD170000C5
S214001610AD170000AD170000AD170000AD170000B5
S214001620AD170000AD170000AD170000AD170000A5
S214001630AD170000AD170000AD170000AD17000095
S214001640AD170000AD170000AD170000AD17000085
S214001650AD170000AD170000AD170000AD17000075
S214001660AD170000AD170000AD170000AD17000065
S214001670AD170000AD170000AD170000AD17000055
S214001680AD170000AD170000AD170000AD17000045
S214001690AD170000AD170000AD170000AD17000035
S2140016A0AD170000AD170000AD170000AD17000025
S2140016B0AD170000AD170000AD170000AD17000015
S2140016C071170000FFF70AFB034603936FE0FFF76E
S2140016D02DFB034603936AE0FFF700FB04464FF436
S2140016E00070FFF77FFC0346B4FBF3F303935EE062
S2140016F0FFF71CFB04464FF42070FFF773FC03460D
S214001700B4FBF3F3039352E0FFF710FB04464FF4E9
S2140017102070FFF767FC0346B4FBF3F35B08039304
S21400172045E002AB0021184620F0DAF8029C4FF4A0
S2140017306070FFF757FC0346B4FBF3F3039336E001
S21400174003AB0021184600F099FC30E003AB002103
S214001750184600F0ABFB2AE003AB0021184600F069
S214001760FDFB24E003AB0021184600F09BFD1EE0C5
S21400177003AB0021184600F069FE18E003AB002119
S214001780184600F0B7FC12E003AB0021184600F044
S21400179013FE0CE003AB0021184600F0D1FD06E076
S2140017A003AB0021184600F0E1FC00E000BF039BFD
S2140017B0184604B010BD00BF00B585B001900023E8
S2140017C00393019BB3F5086F00F02681019BB3F5E8
S2140017D0086F00F23381019BB3F5006F00F01081B3
S2140017E0019BB3F5006F00F22981019BB3F5F06F02
S2140017F000F00081019BB3F5F06F00F21F81019BA2
S214001800B3F5E06F00F01481019BB3F5E06F00F2D2
S2140018101581019BB3F5D06F00F0F880019BB3F5FE
S214001820D06F00F20B81019BB3F5C06F00F0DC8037
S214001830019BB3F5C06F00F20181019BB3F5B06F59
S21400184000F0C080019BB3F5B06F00F2F780019BFB
S214001850B3F5A06F00F0E680019BB3F5A06F00F231
S214001860ED80019BB3F5906F00F0CA80019BB3F545
S214001870906F00F2E380019BB3F5806F00F0A880C4
S214001880019BB3F5806F00F2D980019BB3F5807F92
S21400189000F0A480019BB3F5807F00F2CF80019B0F
S2140018A0522B69D8019B242BC0F0C880019B243B97
S2140018B02E2B00F2C38001A252F823F0D1190000AB
S2140018C0D1190000D1190000D11900003D1A0000FE
S2140018D03D1A0000C51900003D1A0000E919000075
S2140018E00D1A00003D1A00003D1A00003D1A0000C7
S2140018F03D1A00003D1A00003D1A00003D1A000087
S2140019003D1A00003D1A00003D1A0000251A00008E
S2140019103D1A00003D1A00003D1A00003D1A000066
S214001920F5190000311A00003D1A00003D1A0000AB
S2140019303D1A00003D1A00003D1A00003D1A000046
S2140019403D1A00003D1A00003D1A00003D1A000036
S2140019503D1A00003D1A00003D1A00003D1A000026
S2140019603D1A00003D1A00003D1A00003D1A000016
S2140019703D1A0000D1190000019B802B5ED1324B2E
S2140019801B6F03F00703013B032B17D801A252F885
S21400199023F000BFB7190000A5190000AB1900001E
S2140019A0B1190000052303930BE00323039308E01B
S2140019B00723039305E00223039302E00023039327
S2140019C000BF3CE003AB1946002000F06BFC36E09D
S2140019D003AB1946002000F051FB30E003AB19467C
S2140019E0002000F033FD2AE003AB1946002000F08B
S2140019F081FB24E003AB1946002000F0B7FB1EE095
S214001A0003AB1946002000F051FA18E003AB194664
S214001A10002000F0D1FC12E003AB1946002000F0D5
S214001A20EBFA0CE003AB1946002000F097FA06E04C
S214001A3003AB1946002000F083FC00E000BF039BC8
S214001A40184605B05DF804FB00800050074B03F510
S214001A5080531A464FF400235366054B03F5805314
S214001A601A460123936200BF704700BF00800050F3
S214001A7000C0005000B585B001900198FFF79CFEAD
S214001A800290029B082B07D0029B082B20D3029BB8
S214001A90093B012B1CD804E0134B1B88ADF80E3015
S214001AA01BE0124B03F580531A464FF4001353669F
S214001AB00F4B5B6A03F00103002B04D04FF4FA735C
S214001AC0ADF80E3009E04FF6FF73ADF80E3004E0C7
S214001AD04FF6FF73ADF80E3000BFBDF80E30184657
S214001AE005B05DF804FB00BFE40C00200080005049
S214001AF00040025000B583B001908020FFF75CFEE6
S214001B000346032B00F0E280724B03F580531A461F
S214001B104FF400235366704B45F60E02C3F8802040
S214001B206D4B03F580531A46022393626A4B03F506
S214001B3000531A460123936200BF674B9B6D03F464
S214001B408033002BF9D1019B1B681A06019B5B684A
S214001B501B051343019A127B12041343019A527B0E
S214001B6012031343019A927B92011343019AD27B8C
S214001B701146594A0B431361574B9B6903F00042C9
S214001B80019B1B699B061A43019B5B691B0613435B
S214001B90019A127E12041343019A527E12021343D4
S214001BA0019A927E11464C4A0B4393614A4B1B6A3C
S214001BB023F00D03019AD269002A01D1002200E029
S214001BC008221343019AD27E92001A43019BDB69D6
S214001BD0414913430B62019BDB69002B57D13E4BF7
S214001BE09B6A23F03303019A92F820205201134394
S214001BF0019A92F8212012011343374A43F0010359
S214001C00936200BF344B9A6D344B1340334A934271
S214001C10F8D1314B03F580531A46022393622E4BBC
S214001C2002221A6500BF2C4B9B6D03F08043002BED
S214001C30F9D1294B1B6923F47002019B9B681B0595
S214001C40254913430B61244B03F580531A464FF086
S214001C5000439361019B93F8223083F00103DBB2CB
S214001C60002B05D01C4B03F500531A460223936243
S214001C70019B93F8233083F00103DBB2002B1BD0CB
S214001C80154B03F500531A460123936214E0124BDA
S214001C909B6A23F03303019A92F8202052011343E3
S214001CA0019A92F8222052001343019A92F82320B8
S214001CB01146094A0B439362019B93F82430002B8C
S214001CC005D0054B064AC3F8802000E000BF03B0ED
S214001CD05DF804FB0080005000C000500300014087
S214001CE0F1A7FFFF024B93F900301846704700BF7C
S214001CF06627002084B001904F230393019B5B78F6
S214001D008DF80B309DF80B20039B934228BF13469B
S214001D108DF80A30284B03F580531A464FF480039B
S214001D205366264B4FF4D1525A62244B03F5805328
S214001D301A4602235360214B03F500531A4601232B
S214001D40536000BF1D4B1B6903F48033002BF9D191
S214001D50019B1B781A029DF80A30184913434B6101
S214001D60019B5B681A02019B9B681B011343019A47
S214001D70127B52001343019A527B11460F4A0B43C3
S214001D809360019B9B7B5A01019BDB7B1B011A43E3
S214001D90019B1B7C5B001343019A527C1A43074B42
S214001DA05A60019B9B7C002B03D0044B6FF4D152EE
S214001DB05A6200BF04B07047008000500000025016
S214001DC082B00346ADF80630034ABDF806301380ED
S214001DD000BF02B0704700BFE40C002000B587B01B
S214001DE003468DF807300023039300230593002352
S214001DF00493274B03F580531A464FF4001353669B
S214001E00244B02225A6000BF224B9B6803F48033A7
S214001E10002BF9D19DF80730012B2ED1FEF7AAFF33
S214001E200390039B1C4A934205D11C4B059345F631
S214001E307A13049317E0039B194A934205D1194B72
S214001E40059345F61A0304930DE0039A13469B0088
S214001E5013445B0A0593144B0493039B5B0A049A92
S214001E60B2FBF3F304930B4A059BD362094A049B27
S214001E701363084B01225A6202E0064B00225A62A4
S214001E80044B00225A6000BF07B05DF804FB00BF99
S214001E90008000500040025000F04902D8B805000B
S214001EA0C0175302BBCF05006466666600B585B0F2
S214001EB00190009100230393274BD3F8243103F0BD
S214001EC00703013B052B33D801A252F823F000BFCD
S214001ED0E91E0000011F0000191F0000251F00005A
S214001EE0F51E00000D1F0000FEF7F2FE039005230E
S214001EF0029320E0FEF7ECFE0390062302931AE01E
S214001F00FEF738FF03900323029314E0FEF732FF38
S214001F100390042302930EE0FEF748FF039002238B
S214001F20029308E01FF0BFFB03900723029302E032
S214001F300023029300BF019B002B02D0019B039A53
S214001F401A60009B002B02D0009B029A1A6000BF0A
S214001F5005B05DF804FB00BF0080005000B583B0FC
S214001F6001900091124BD3F8203203F00303012BAB
S214001F7002D0022B05D009E00099019800F07EF807
S214001F8011E00099019800F0B5F80CE0019B002BD9
S214001F9002D0019B00221A60009B002B02D0009BFF
S214001FA000221A6000BF00BF03B05DF804FB00BF4C
S214001FB000800050044B03F580531A464FF48033DC
S214001FC0136700BF704700BF0080005008B5802030
S214001FD0FFF718F90346064A934206D8054B03F561
S214001FE000531A464FF48033136700BF08BD00BF86
S214001FF0005A62020080005000B585B00190009142
S214002000002303931C4BD3F8003103F00303032B88
S2140020101FD801A252F823F04D200000292000000E
S2140020203520000041200000FEF7A4FE03900323A5
S214002030029311E0FEF7C0FE0390082302930BE024
S2140020401FF031FB03900723029305E00123029360
S21400205002E00023029300BF019B002B02D0019BED
S214002060039A1A60009B002B02D0009B029A1A600B
S21400207000BF05B05DF804FB0080005000B585B0D9
S2140020800190009100230393194BD3F8203103F0FD
S2140020900303032B12D0032B16D8012B02D0022BDE
S2140020A006D011E0FEF714FE0390052302930EE01F
S2140020B0FEF760FE03900323029308E0FEF776FE29
S2140020C003900223029302E00023029300BF019BC9
S2140020D0002B02D0019B039A1A60009B002B02D0B3
S2140020E0009B029A1A6000BF05B05DF804FB00BFB3
S2140020F00080005000B585B0019000910023039346
S214002100194BD3F8403103F00303032B12D0032BF3
S21400211016D8012B02D0022B06D011E01FF0C6FA0B
S2140021200390092302930EE0FEF746FE0390082371
S214002130029308E01FF0BEFA03900B23029302E01E
S2140021400023029300BF019B002B02D0019B039A41
S2140021501A60009B002B02D0009B029A1A6000BFF8
S21400216005B05DF804FB00BF0080005000B585B0E8
S2140021700190009100230393194BD3F8603103F0CC
S2140021800303032B12D0032B16D8012B02D0022BED
S21400219006D011E01FF08AFA0390092302930EE09E
S2140021A0FEF70AFE03900823029308E01FF082FA67
S2140021B003900B23029302E00023029300BF019BCF
S2140021C0002B02D0019B039A1A60009B002B02D0C2
S2140021D0009B029A1A6000BF05B05DF804FB00BFC2
S2140021E00080005084B0019000914FF44013039398
S2140021F0009B002B0AD1019B0D4A934203D94FF452
S214002200801303930FE0002303930CE0009B002B46
S21400221009DD019B064A934203D94FF480130393CA
S21400222001E000230393039B184604B0704700BFE9
S214002230005A620200B585B001900091184B03F574
S21400224080531A464FF4003393660020FEF7CAFE0A
S2140022500246019B02FB03F30193FEF795FE03463D
S2140022608DF80F30FEF7A6FEFEF7ACFE034623F40D
S2140022704013029300990198FFF7B4FF0246029BB1
S214002280134302930298FEF7A3FE9DF80F30002B2F
S21400229001D0FEF787FE00BF05B05DF804FB00BF67
S2140022A00080005000B585B0019000910023029395
S2140022B0154BD3F8803103F00303012B02D0022B19
S2140022C008D00EE002AB00211846FFF7D7FE0F231A
S2140022D0039309E0FEF76AFD034602930223039385
S2140022E002E00023039300BF019B002B02D0029A5A
S2140022F0019B1A60009B002B02D0009B039A1A6079
S21400230000BF05B05DF804FB0080005000B583B048
S214002310022301934FF4C070FEF774FF0346074A8A
S214002320934201D80123019301994FF42070FEF7E0
S214002330A3FE00BF03B05DF804FB00BF80F0FA0206
S21400234000B585B00190009100230393194BD3F894
S214002350403203F00303032B12D0032B16D8012BB5
S21400236002D0022B06D011E01FF0A0F9039009233B
S21400237002930EE0FEF720FD03900823029308E088
S2140023801FF098F903900B23029302E000230293B8
S21400239000BF019B002B02D0019B039A1A60009B92
S2140023A0002B02D0009B029A1A6000BF05B05DF8B1
S2140023B004FB00BF0080005000B585B0019000917E
S2140023C000230393204BD3F8003203F00703013BAE
S2140023D0032B25D801A252F823F000BFED230000FE
S2140023E0F923000005240000112400001FF05EF908
S2140023F003900923029316E0FEF7DEFC0390082301
S214002400029310E01FF056F903900B2302930AE0A4
S214002410FEF78CFC03469B0A03930E23029302E00E
S2140024200023029300BF019B002B02D0019B039A5E
S2140024301A60009B002B02D0009B029A1A6000BF15
S21400244005B05DF804FB00BF0080005000B585B005
S2140024500190009100230393114B1B6803F00403C3
S214002460002B06D0FEF762FC034603930C23029370
S21400247005E002AA03AB11461846FFF73BFE019B98
S214002480002B02D0039A019B1A60009B002B02D0FF
S214002490029A009B1A6000BF05B05DF804FB00BFFF
S2140024A010E000E0024B034A1A6400BF704700BF0A
S2140024B0004009503254FFFF024B4AF6CD321A64F0
S2140024C000BF70470040095008B500BF042104480B
S2140024D01FF069FA0346002BF8D100BF00BF08BD05
S2140024E08440005008B5FFF7EFFF044BD3F8843064
S2140024F09B0903F00303DBB2184608BD00400050FA
S21400250000B585B003468DF807309DF80730002BE0
S21400251013D12D4B00221A602C4B03F580531A461C
S2140025204FF4003353662A4B5B68012B47D1274B89
S214002530D3F80031244A136041E0234B1B68002B7C
S2140025403DD0234B5B68012B39D0204A1E4B1B68BD
S214002550C2F800318020FFF72FF90346052B28D15B
S2140025604FF4C070FEF73EFD0390039B012B04D191
S21400257002214FF4C070FEF77FFD154B03F50053A4
S2140025801A4607231361124B03F580531A4601239C
S214002590536000BF0E4B1B6903F00103002BF9D0FC
S2140025A0039B012B0BD101214FF4C070FEF764FD95
S2140025B005E0074B03F580531A460123536000BF1E
S2140025C005B05DF804FB00BF941A002000800050A0
S2140025D000C0015000B583B00190019B1A78054BEE
S2140025E01A700121002000F097F800BF03B05DF8D4
S2140025F004FB00BF901A002082B00190064B5B6F70
S21400260023F44072019B5B781B02034913434B671C
S21400261000BF02B0704700BF0040005000B585B054
S21400262003468DF807309DF80730002B02D00020B7
S214002630FFF766FF144B1B69134A43F0040313614C
S21400264004F0C6FE1FF0CAF91FF077F903902CF0CD
S2140026506BFC03981FF07DF91FF0C2F904F0D0FE62
S2140026609DF80730002B02D00120FFF749FF9DF8A8
S214002670073083F00103DBB2002B01D01FF08EF988
S21400268000BF05B05DF804FB00ED00E000B585B0C6
S21400269003468DF807309DF80730002B02D0002047
S2140026A0FFF72EFF124B1B69114A43F00403136118
S2140026B004F08EFE1FF041F903902CF035FC0398D1
S2140026C01FF047F904F09CFE9DF80730002B02D05F
S2140026D00120FFF715FF9DF8073083F00103DBB2FA
S2140026E0002B01D01FF05AF900BF05B05DF804FBBF
S2140026F000ED00E082B00190064BDB6E23F0300365
S214002700019A12791146034A0B43D36600BF02B002
S214002710704700BF0040005000B585B001900B46E2
S2140027208DF80330019B002B03D1FEF7D7FA0390F8
S21400273001E0019B03930D4B1B78002B0AD0039BF3
S2140027400B4A934206D89DF803301946012000F044
S21400275011F806E09DF803301946022000F00AF84A
S21400276000BF00BF05B05DF804FB00BF901A002054
S214002770005A620210B586B003460A468DF8073046
S21400278013468DF80630FFF7ADFE03461A469DF851
S2140027900730934240D0FEF7A1FA0590059B0493BC
S2140027A09DF80730012B03D1012105981FF084F80E
S2140027B01FF0C3F803901A4B03F500531A464FF068
S2140027C0007353669DF8073018461FF017F9144C2F
S2140027D09DF8073018461FF0F3F80346236702E01B
S2140027E00F4BD3F884300E4B5B6E03F00073002B58
S2140027F006D10B4BD3F8843003F02003002BEFD028
S21400280003981FF0A6F89DF80730022B05D100218B
S21400281005981FF051F800E000BF06B010BD00BFDD
S2140028200040005000B585B003468DF807302F4BAA
S21400283003F580531A464FF0004353662C4B03F5BE
S21400284080531A4601235360294B5B6C03F0010347
S214002850002B14BF012300238DF80F30FFF72CFE4A
S2140028609DF80730002B1BD1214B9B6803F001031A
S2140028700293029B002B0CD01D4B03F500531A4607
S2140028800123936000BF1A4BDB6A03F00103002BA1
S214002890F9D0174B03F500531A460123536019E08D
S2140028A000BF134BDB6A03F00803002BF9D1104B73
S2140028B003F500531A46202353620D4B03F580534D
S2140028C01A460123936000BF094B5B6A03F020039E
S2140028D0002BF9D09DF80F30002B01D0FFF7E2FD5A
S2140028E02BF07BFE00BF05B05DF804FB00800050B7
S2140028F00040095000B585B001902B4B03F580537E
S2140029001A464FF000435366284B03F580531A4689
S21400291001235360254B5B6C03F00103002B14BFAF
S214002920012300238DF80F30FFF7C6FD019B5B786F
S2140029305B001F4A43F00103D3631C4B9B6823F0E4
S2140029407402019B9B781B011343019AD278002ADC
S21400295001D0042200E00022144913438B60019B3F
S2140029601B791B02019A92791146104A0B43136198
S214002970019B5B791B02019AD27911460B4A0B43E5
S2140029805361019B1B781846FFF74CFF9DF80F30EC
S214002990002B01D0FFF786FD2BF01FFE0123184603
S2140029A005B05DF804FB00BF0080005000400950F1
S2140029B00040005082B0034600918DF807309DF825
S2140029C00730002B0AD09DF80730012B06D09DF863
S2140029D00730022B02D09DF80730032B08489DF8DD
S2140029E007200121009B994013465B0013441B01FE
S2140029F0034403F500531033196000BF02B070475C
S214002A0000C0035082B0034600918DF807309DF851
S214002A100730002B0AD09DF80730012B06D09DF812
S214002A200730022B02D09DF80730032B08489DF88C
S214002A3007200121009B994013465B0013441B01AD
S214002A40034403F580531033196000BF02B070478B
S214002A5000C0035000B589B00390029101928DF832
S214002A600330019B002B00F087809DF8033003F0B5
S214002A7003038DF80330039B9B6823F44072039B8B
S214002A809A60039B03F108009DF803301B021A4668
S214002A904FF440711FF071F8029B002B10D1039B7E
S214002AA0384A934204D12E20FEF7ACFB029007E092
S214002AB0039B354A934203D12F20FEF7A3FB0290D7
S214002AC04FF0FF330693039B9B6803F00203002B33
S214002AD013D09DF80330022B0CD0022B21DC002BE8
S214002AE002D0012B03D01CE0284B06931CE0284B99
S214002AF0069319E0274B069316E09DF80330022B49
S214002B000CD0022B0FDC002B02D0012B03D00AE0E6
S214002B101E4B069308E0204B069305E01F4B0693DA
S214002B2002E000BF00E000BF9DF803301C4AD35C03
S214002B300593059B019A02FB03F30493049B002B69
S214002B401CD0019BDB00029AD21A049B13445A1E27
S214002B50049BB2FBF3F3013B0793039B9B6803F0D4
S214002B600203002B04D0079B002B01D101230793FF
S214002B70079A039B9A6102E000BF00E000BF09B01D
S214002B805DF804FB0000015A0080065080841E0099
S214002B90404B4C00809FD50040548900002D3101E9
S214002BA008F2020000B583B001900B468DF80330A2
S214002BB0019B094A934202D0019B084A934200BFF8
S214002BC0019B04339DF80320002118461EF0BCFF2D
S214002BD000BF03B05DF804FB0000015A00800650F9
S214002BE000B583B001900091019B164A934202D033
S214002BF0019B154A934200BF019B00221A641349A9
S214002C0001981EF095FF019B03F10800009B5B787E
S214002C1083F00103DBB21A4601211EF095FF009BEC
S214002C205968009B9A68009B1B7B0198FFF712FF70
S214002C30009B1B7819460198FFF7B4FF00BF03B04E
S214002C405DF804FB0000015A00800650FFFF1F00DD
S214002C5000B58BB0019000238DF81F30019B9F4A72
S214002C60934202D0019B9E4A934200BF019B9B4A1F
S214002C70934202D19B4B089309E0019B984A9342EA
S214002C8002D1994B089302E06FF0030358E2089BC9
S214002C909B68069337E2019BDB6B0593059B03F469
S214002CA0C063002B14D0059B03F40073002B03D0E5
S214002CB0089BFD225A7007E0059B03F48063002BF7
S214002CC002D0089BFE225A70089B09221A7022E244
S214002CD0089B1B78082B00F20C8201A252F823F006
S214002CE0052D00005D2D0000ED2D0000492E000092
S214002CF0B72E0000232F0000B72F0000FF2F000084
S214002D00D1300000069B5B8803F01003002B09D02F
S214002D10069B1B881B0A9BB203F0060343F0F003D6
S214002D2009930EE0069B1B8803F0FE030993069B9F
S214002D305B8803F00203002B03D0099B43F00103DA
S214002D400993089B01221A70019B099A5A63019BFA
S214002D500122DA6001238DF81F30D4E1059B03F0D1
S214002D608003002B0DD0802101981EF0E1FE089B09
S214002D70FF225A70089B08221A70019B0222DA6012
S214002D8030E0059B03F04003002B2BD04021019838
S214002D901EF0CEFE069B5B8803F01003002B08D0C7
S214002DA0089B02221A70069B1B88DAB2019B5A63A4
S214002DB018E0069B5B8803F00203002B0ED0089BEE
S214002DC007221A70089B1B79069ADB0013441B899E
S214002DD0012B07D1019B0822DA6003E0089B05223D
S214002DE01A7090E101238DF81F308CE1059B03F0EB
S214002DF08003002B0DD0802101981EF099FE089BC1
S214002E00FF225A70089B08221A70019B0222DA6081
S214002E1016E0059B03F04003002B11D040210198DB
S214002E201EF086FE069B5B8803F00203002B03D091
S214002E30089B03221A7066E1089B05221A7062E15D
S214002E4001238DF81F305EE1069B5B8803F01003BC
S214002E50002B09D0069B1B881B0A9BB203F00603B7
S214002E6043F0F003099304E0069B1B8803F0FE037F
S214002E700993069B5B8803F00403002B0ED0099B86
S214002E8043F001030993089B1B79069ADB00134461
S214002E901B89012B02D1019B0822DA60089B0422C1
S214002EA01A70019B0122DA60019B099A5A6301237A
S214002EB08DF81F3027E1059B03F08003002B15D00B
S214002EC0802101981EF034FE089BFF225A70089B52
S214002ED008221A70019B0222DA601EE00000015AE6
S214002EE000800650981A0020A41A0020059B03F0C4
S214002EF04003002B11D0402101981EF019FE069BBE
S214002F005B8803F00403002B03D0089B07221A708B
S214002F1003E0089B05221A70F5E001238DF81F30A8
S214002F20F1E0089B5A88089B1B790699DB000B4446
S214002F301B899A4227D3089B00225A80089B1B793C
S214002F400133DAB2089B1A71069B5B8803F0040310
S214002F50002B03D0089B03221A70D4E0069B5B88E4
S214002F6003F00103002B04D1089B1B79012B40F2D0
S214002F70CA80089B08221A70019B0222DA6001238D
S214002F808DF81F30BFE0089B1B79069ADB001344C0
S214002F905A68089B5B88591C88B208994880134475
S214002FA01B781A46019B5A63089B06221A70012357
S214002FB08DF81F30A7E0059B03F08003002B0DD093
S214002FC0802101981EF0B4FD089BFF225A70089BD2
S214002FD008221A70019B0222DA600CE0059B03F0BF
S214002FE04003002B07D0402101981EF0A1FD089B4E
S214002FF005221A7087E001238DF81F3083E0059BB9
S21400300003F02003002B5FD0089B1B79069ADB0099
S21400301013441B890493019B5B6A8DF80F30019B58
S2140030205B690293029B03F02003002B0CBF012375
S2140030300023DAB2029B03F40033002B14BF0123F3
S2140030400023DBB21340DBB2002B06D0019B5B6A89
S2140030504FF4005101981EF06BFD202101981EF0E0
S21400306067FD089B5B881A46049B93420FD9089B12
S2140030701B79069ADB0013445A68089B5B88591C28
S21400308088B20899488013449DF80F201A70089B50
S2140030905B881A46049B934206D8089B08221A703F
S2140030A0019B0222DA600FE0019B0422DA60049B97
S2140030B0012B09D9089B5B881A46049B013B9A4260
S2140030C002D1019B0822DA6001238DF81F301AE036
S2140030D0059B03F48073002B07D04FF48071019892
S2140030E01EF026FD089B09221A7001238DF81F305A
S2140030F009E0089BFB225A70089B09221A700123DC
S2140031008DF81F3000BF9DF81F3083F00103DBB23F
S214003110002B7FF4C0AD089B1B78092B0BD1019BBD
S21400312000221A64089B93F90130012B05D1089BF5
S21400313000225A7001E0012302E0089B93F9013057
S21400314018460BB05DF804FB00B585B00190009101
S214003150019B2F4A934202D0019B2E4A934200BF06
S214003160019B2B4A934202D12B4B039309E0019B10
S214003170284A934202D1294B039302E06FF00303DF
S21400318042E0019B1B6903F00103002B02D0019B68
S2140031902022DA60009B5B8803F00203002B03D03A
S2140031A0009B1B89002B09D0009B5B8803F004035F
S2140031B0002B06D0009B1B8A002B02D16FF0030366
S2140031C022E0039B00221A70039B01225A70039B85
S2140031D000225A80039B00221A71039B009A9A6071
S2140031E0019BC022DA6001981EF0E1FC0C490198B0
S2140031F01EF09EFC019B1B6C43F4FC62019B1A6450
S2140032000198FFF725FD0346184605B05DF804FB58
S2140032100000015A00800650981A0020A41A0020C8
S214003220FFFF1F00094B03F580531A464FF4003387
S2140032309366074B41F67132DA63054B03F500538C
S2140032401A460123D36000BF704700BF00800050BD
S214003250000003500A4B41F67132DA63084B03F55F
S21400326000531A460123D360054B0022DA63054B50
S21400327003F500531A464FF40033936600BF7047B9
S214003280000003500080005084B001900091009B25
S2140032901B781A46009B5B789B001A43009BDB78E2
S2140032A05B011A43009B1B791B014FF0B04042EABA
S2140032B00301019A13465B0013449B00034430331A
S2140032C01960009B1B78012B09D1064B0393009BCA
S2140032D09978019B9B00039A13440A461A6000BF24
S2140032E004B07047E8800350014B5B69184670478E
S2140032F000C0075000B585B00190114B03F5805310
S2140033001A464FF480335366FFF7EEFF0390039B95
S2140033109B09DBB203F03F03DAB2019B9A70039B72
S214003320DBB203F03F03DAB2019B5A70039B1B0B20
S214003330DAB2019B1A7000BF05B05DF804FB00BF4F
S2140033400080005082B001900B468DF80330019B40
S2140033500D4A934205D10D4A9DF80330C2F88C31D0
S21400336008E0019B0A4A934204D1084A9DF80330BC
S214003370C2F89C31019BDB6D43F08002019BDA654D
S21400338000BF02B0704700BF00C005500080035069
S2140033900000065000B587B00390029101928DF8A8
S2140033A0033000230593029B002B04D14FF42070BA
S2140033B0FDF728FF02909DF80330602B13D0602B9A
S2140033C014DC402B0CD0402B10DC002B02D0202B22
S2140033D003D00BE01023059309E00823059306E0CD
S2140033E00623059303E00423059300E000BF059B36
S2140033F0002B2AD0029B5A01059B019901FB03F37F
S2140034005B0813440493059B019A02FB03F3049A9A
S214003410B2FBF3F30493049B203B0493049BDB0072
S2140034200493049A0B4B13400493039B9B6823F06E
S2140034306002039B9A60039B9A689DF803301A43C8
S214003440039B9A60039B049ADA6100BF07B05DF89D
S21400345004FB00BFF8FF7F0000B583B00190009129
S214003460019B564A934202D0019B554A934200BFA5
S214003470019800F02DF9019B03F580531A460123AD
S2140034805360009B9B7C002B05D0019B9B6843F000
S2140034908042019B9A60009BDB7C002B05D0009B42
S2140034A01B7D19460198FFF74DFF009B5B7B1A4674
S2140034B0009B1B8A1343009AD2891A43019BDA6049
S2140034C0009B5968009B9A68009B1B7B0198FFF73E
S2140034D061FF009B5B7D002B05D0019B9B6843F43E
S2140034E08032019B9A60009B9B7D002B05D0019B40
S2140034F09B6843F40042019B9A60009BDB7D1B07A0
S21400350003F0E042009B1B7E1B0503F4E0031A4316
S214003510019B9A65009B5B7E022B03D0009B5B7E23
S214003520032B16D1274A019B24498B4208D0019BC6
S21400353023498B4201D1012303E04FF0FF3300E023
S21400354000235B01134403F5B0531C3302221A60B8
S21400355015E01C4A019B19498B4208D0019B18496B
S2140035608B4201D1012303E04FF0FF3300E000233C
S2140035705B01134403F518531C3302221A60009BA8
S2140035805B7E012B03D0009B5B7E032B06D1019B49
S21400359003F580531A460423D36505E0019B03F523
S2140035A000531A460423D365009B1B781A46019BDA
S2140035B05A6100BF03B05DF804FB00BF00C00550B1
S2140035C00000065000C0035000B583B00190009183
S2140035D0019B3D4A934202D0019B3C4A934200BF66
S2140035E0019800F075F8019B03F580531A460123F5
S2140035F05360019B9A68009B1B8A43F001039BB2B1
S2140036001946009B9B7B002B02D04FF4806300E0A2
S21400361000230B431A43019B9A60019B9B68009A08
S214003620127D002A02D04FF0005200E000221A431A
S214003630019B9A60009B9B7C002B05D0009BDB7C4B
S21400364019460198FFF77EFE009B1B7B43F48052D1
S214003650019BDA60009B5968009B9B681A4601989C
S2140036601EF056FB009B5B7B002B02D0019B1022BA
S2140036705A61009B5B7D002B05D0019B9B6843F441
S2140036808032019B9A60009B9B7D002B05D0019B9E
S2140036909B6843F40042019B9A60009BDB7D1B07FE
S2140036A003F0E042009B1B7E1B0503F4E0031A4375
S2140036B0019B9A65009B1B781A46019B5A6100BFC6
S2140036C003B05DF804FB00BF00C0055000000650C4
S2140036D082B00190019B264A934202D0019B254A64
S2140036E0934200BF019B03F580531A4601235360A3
S2140036F0019B40F6AA625A61019B00229A60019BD8
S2140037000022DA65019B41F20502DA60019B002285
S2140037101A61019B0022DA61019B0022DA64019B98
S21400372003F500531A46144B9364019B00229A65D6
S214003730019B0F4A934203D0019B0E4A934202D14B
S214003740019B00221A65019B094A934203D0019B04
S214003750084A934202D1019B00225A65019B03F559
S21400376000531A460123536000BF02B0704700BFE3
S21400377000C0055000000650FFFF010030B583B0C2
S214003780019001982AF04FFF064A019B14461D46F9
S2140037900FCD0FC495E8030084E803000023184605
S2140037A003B030BDB01A00208EB001900B468DF8E5
S2140037B003301346ADF80030BDF9003047F6FF720F
S2140037C0934201D1FF23EFE09DF80330022B01D98D
S2140037D00023E9E09DF80330DB00754A13440893A4
S2140037E0089B9B780793089B1B78012B2BD1002303
S2140037F00C93089BDB781A46079BD31A0B9317E0AB
S2140038000B9A0C9BD31A5B080B9AD31A0393089B4C
S2140038105A68039B5B001344B3F90030BDF90020DF
S2140038209A4203DA039B013B0B9301E0039B0C9344
S2140038300C9A0B9B9A42E3D30B9BDAB2079BDBB244
S2140038401344DBB2B0E0089B5B680693069B002B34
S21400385001D10023A8E0069BB3F90030BDF9002093
S2140038609A4204DD069B1B88ADF800300AE0069BF2
S214003870B3F90230BDF900209A4203DA069B5B8852
S214003880ADF80030C823ADF82A302823ADF828302C
S2140038900023ADF82630069B9B88FF2B0DD1BDF884
S2140038A0263001339BB2ADF82630069BDB88ADF898
S2140038B02A30069B9B68ADF82830BDF92A20BDF952
S2140038C00030D21ABDF9283092FBF3F39AB2BDF855
S2140038D0263013449BB2ADF82630089B5B781A4618
S2140038E0BDF926309A4203DDBDF92630002B06DAF4
S2140038F0089B5B789BB2013B9BB2ADF82630BDF9C6
S2140039002630DB00069A134404330593059B5A6859
S214003910059BB3F902301946BDF9003001FB03F3ED
S21400392013440493049B002B02DA00230D9301E05A
S214003930049B0D930D9B03F5FA731E4AA2FB03230B
S2140039409B090D93BDF926309BB201339BB2ADF8AF
S2140039502630BDF92630089A5278934209DABDF926
S2140039602630069ADB0013449B881A460D9B93422A
S214003970C5D9BDF92630013B069ADB0013449B8867
S2140039801A460D9B934207D9BDF92630013B069A8D
S214003990DB0013449B880D930D9A079B9A4201D235
S2140039A0079B0D930D9BDBB218460EB0704700BF09
S2140039B0B01A0020D34D621088B001900B468DF8E7
S2140039C0033013468DF802309DF80330022B01D9E0
S2140039D05D4BB6E09DF80330DB005C4A134406936B
S2140039E0069B1B78012B26D1069BDB789DF80220D0
S2140039F09A4203D9069BDB788DF80230069B9B78AB
S214003A009DF80220D31A8DF802309DF80220069BFE
S214003A10DB781946069B9B78CB1A9A4202DD002378
S214003A208DF80230069B5A689DF802305B001344FE
S214003A30B3F9003085E0069B5B680593059B002B79
S214003A4001D1414B7DE0059B04330493069B9B7894
S214003A509DF802209A4203D8059BB3F9023070E025
S214003A60069BDB789DF802209A4203D3059BB3F9A8
S214003A70003066E000238DF81F30069B5B78013B24
S214003A808DF80F30049B1B88FF2B14D101238DF873
S214003A901F3010E09DF81F300133DB00049A1344FA
S214003AA01A889DF802309BB29A420BD39DF81F30BD
S214003AB001338DF81F309DF81F209DF80F309A4275
S214003AC0E8D300E000BF9DF802304FF47A7203FBA3
S214003AD002F29DF81F30DB0004990B445B68D31A92
S214003AE002939DF81F30DB00049A1344B3F90230AA
S214003AF0DA0F13445B101BB21A46029B13449DF860
S214003B001F20D20004990A44B2F9022093FBF2F374
S214003B100293059BB3F900301A46029B934203DDDD
S214003B20059BB3F900300CE0059BB3F902301A464A
S214003B30029B934203DA059BB3F9023001E0029B35
S214003B401BB2184608B070470080FFFFB01A00206E
S214003B5008B50448FFF712FE01202AF068FD00BFF2
S214003B6008BD00BF78F20200014B1846704700BF40
S214003B708C0B002000B587B001AB00221A605A609B
S214003B809A60DA601A6102238DF804300B4B0293B8
S214003B9002238DF80D3004238DF80E3002238DF8A5
S214003BA0133005238DF8143001AB19464FF0FF3063
S214003BB02AF073FD00BF07B05DF804FB006A18002A
S214003BC082B001230193034A019B936000BF02B0B9
S214003BD0704700BF0020025C014BDB681846704748
S214003BE00020025C86B003900291019200930023AD
S214003BF00593019B1B0403F47022029B1B0203F433
S214003C0070631A43039B03F00F031A43009B1B06C3
S214003C1003F0706313430593024A059B136000BFCD
S214003C2006B070470020025C00B587B00390029192
S214003C30019200934FF000430493029B002B03D0A5
S214003C40029B013B059301E000230593059BB3F51A
S214003C50806F01D301231FE000BF1EF0C6F80346A5
S214003C60002BFAD1049A039B13430493059B1A0274
S214003C700B4B1340049A13430493019B1B0703F05A
S214003C808053049A13430493049A009B13430493AB
S214003C90044A049B53600023184607B05DF804FBF3
S214003CA000FF03000020025C014B1B6818467047AB
S214003CB00040025C014B1B68184670470410025C0B
S214003CC0014B1B68184670473010025C014B1B689E
S214003CD0184670470010025C82B00190024A019BB1
S214003CE0136000BF02B070470810025C82B00190FB
S214003CF0024A019B136000BF02B070474010025C8E
S214003D0082B003468DF80730034A9DF807301360EB
S214003D1000BF02B0704700BF4410025C82B0019042
S214003D20024A019B136000BF02B070473410025C69
S214003D30024B00221A6000BF704700BF0010025CF2
S214003D4008B5FFF7C3FF0346024A43F001031360BA
S214003D5000BF08BD0010025C024B43F204021A606A
S214003D6000BF70470010025C08B5FFF7AFFF0346C0
S214003D70024A43F03003136000BF08BD0010025C27
S214003D8008B5FFF7A3FF0346064A43F480731360A3
S214003D90FFF79CFF0346034A23F48073136000BFBB
S214003DA008BD00BF0010025C08B5FFF78FFF034692
S214003DB0024A43F48063136000BF08BD0010025C33
S214003DC000B583B003468DF80730FFF77FFF034644
S214003DD023F470239DF8072012041146034A0B4370
S214003DE0136000BF03B05DF804FB00BF0010025C68
S214003DF082B001900A4B1A68019B1A60094A019B1F
S214003E00043312681A60084A019B083312681A6065
S214003E10064A019B0C3312681A6000BF02B0704756
S214003E201010025C1410025C1810025C1C10025C7D
S214003E3082B00190094A019B1B681360084A019BE7
S214003E405B681360074A019B9B681360064A019BE8
S214003E50DB68136000BF02B0704700BF1010025C42
S214003E601410025C1810025C1C10025C00B583B0D3
S214003E70019000BFFFF724FF034603F00103002B69
S214003E80F8D1034A019B136000BF03B05DF804FB42
S214003E902010025C82B0044B0193019B01221A6041
S214003EA000BF02B0704700BFFCFFFF3F00B583B005
S214003EB001900091019907481EF00AF900990648FA
S214003EC01EF006F9054B03221A6000BF03B05DF82A
S214003ED004FB00BF0000025C1000025C3400025CC1
S214003EE082B010B586B001AC84E807000993029B47
S214003EF00C9A934228BF13460593039B03F0805306
S214003F00002B04D0059B033323F003030593059B86
S214003F1023F070430593099B194613481EF0D8F802
S214003F200B9B03F0E042059B1343104A43F00053FB
S214003F3013600F4B00221A60019B19460D481EF0B5
S214003F40C7F8039B03F0E042059B13430A4A43F07D
S214003F5000531360094B00221A6000BF06B0BDE88C
S214003F60104002B0704700BF0000025C0800025C10
S214003F700C00025C1000025C1800025C3400025C5C
S214003F80054B3F221A60054B10221A60044B032291
S214003F901A6000BF704700BF3000025C1C00025C65
S214003FA03800025C00BF044B1B6803F00203002BC2
S214003FB0F9D100BF00BF70473C00025C054B1B6890
S214003FC003F02403002B01D0042300E0002318464E
S214003FD0704700BF2800025C82B0084B1B68019344
S214003FE0019B23F47F4323F0EF03002B01D004232F
S214003FF000E00023184602B0704700BF3C00025C99
S21400400082B001900091019B5B68202B22D0202B70
S2140040102FD8102B02D0182B0DD02AE0264B1B6869
S21400402003F08073002B01D1012342E0009B1A6845
S214004030009B1A601FE0204B1B6803F00073002BE8
S21400404001D1012335E0009B1B6843F00802009B6A
S2140040501A6010E0184B1B6803F08063002B01D138
S214004060012326E0009B1B6843F00402009B1A60B5
S21400407001E007231DE0019B1B68104A934209D10B
S214004080009B1B6843F04002009B1A60019B0022C5
S2140040905A600DE0019B1B68094A934208D1009BB9
S2140040A01B6843F08002009B1A60019B00225A6046
S2140040B00023184602B070470404025C67270020FD
S2140040C06827002000B587B00590049103920A4B3C
S2140040D01B6803F00103002B01D1012308E0039BBA
S2140040E00093049B059A0021002000F05DF803462B
S2140040F0184607B05DF804FB0404025C00B585B002
S214004100039002910192094B1B6803F48073002B05
S21400411001D1012306E0019B029A0399002000F0DA
S2140041208DF80346184605B05DF804FB0404025CEF
S21400413000B587B005900491039202930A4B1B6862
S21400414003F48073002B01D1012308E0029B009347
S214004150039B049A0599002000F0A6F8034618462B
S21400416007B05DF804FB00BF0404025C00B587B02E
S21400417005900491039202930A4B1B6803F4807324
S214004180002B01D1012308E0029B0093039B049AB5
S2140041900599002000F0C2F80346184607B05DF8FF
S2140041A004FB00BF0404025C00B591B00A920993B8
S2140041B003468DF82F300B468DF82E30099B5B6832
S2140041C003F00F03002B09D1099B5B68002B05D079
S2140041D0129B5A68099B5B689A4201D0072325E028
S2140041E09DF82E30134A52F8233043F480730F9311
S2140041F0114A0CAB07CA83E807000CAA9DF82F00EB
S2140042000CAB07930CAB06930CAB05930CAB04936B
S2140042100CAB0393129B0293099B01930CAB009388
S21400422013460A9A0F991EF03DF80346184611B039
S2140042305DF804FB9CF2020090F2020000B591B01B
S2140042400A910992089303468DF82F30089B5B6805
S214004250102B01D0072320E04FF480330F93114A30
S2140042600CAB07CA83E807000CAA9DF82F000CAB1E
S2140042700793089B06930CAB05930CAB04930CAB0F
S21400428003930CAB0293099B01930CAB009313466C
S2140042900A9A0F991EF006F80346184611B05DF804
S2140042A004FB00BF90F2020000B591B00A9109929B
S2140042B0089303468DF82F30164B0F93089B5B68C8
S2140042C0102B03D1129B5B68102B01D007231DE037
S2140042D0114A0CAB07CA83E807000CAA9DF82F000A
S2140042E0129B07930CAB06930CAB05930CAB049395
S2140042F00CAB03930CAB0293099B0193089B0093B2
S21400430013460A9A0F991DF0CDFF0346184611B0C2
S2140043105DF804FB3000010090F2020000B591B099
S2140043200A910992089303468DF82F30164B0F9387
S214004330089B5B68102B03D1129B5B68102B01D087
S21400434007231DE0114A0CAB07CA83E807000CAA36
S2140043509DF82F000CAB0793129B06930CAB0593AE
S2140043600CAB04930CAB03930CAB0293099B019329
S214004370089B009313460A9A0F991DF093FF034675
S214004380184611B05DF804FB1000010090F2020020
S21400439082B010B588B003AC84E807000B93149B7A
S2140043A0202B01D9012371E00499149A13469B002F
S2140043B01344994207D00499149A13465B00134499
S2140043C05B0099420DD10C9B149A9A4209D10F9A20
S2140043D0149B5B009A4204D1129A149B5B009A428B
S2140043E001D0072352E0159B012214992220FFF7E3
S2140043F01BFC0790079B002B01D0079B46E0002381
S21400440006220E210C20FFF7EDFB0123019301236A
S2140044100093149B03AA07CA1DF00FFE0E230093F9
S214004420149B0BAA07CA1DF0FCFC0C230093149BDC
S2140044300EAA07CA1DF03AFD174B0693069B5B684B
S21400444023F07F0343F02602069B5A601DF0E9FD29
S2140044500790079B002B01D0062317E0069B5B689E
S21400446023F07F0343F02202069B5A601DF0D9FD1D
S2140044700790079B002B01D0062307E00623009336
S214004480149B11AA07CA1DF05EFD0023184608B04B
S214004490BDE8104002B070470020025C30B59BB00B
S2140044A02E4B08AC1D460FCD0FC40FCD0FC40FCD3D
S2140044B00FC495E80F0084E80F00294B04AC0FCB1F
S2140044C084E80F00274B6C460FCB84E80F000023D0
S2140044D01893FFF755FC0420FFF772FCFFF73CFC2F
S2140044E06B461846FFF7A4FC002319930BE0199BB4
S2140044F09B0068336B4453F8483C1846FFF7B6FCFD
S214004500199B01331993199B0F2BF0D900BFFFF7A6
S214004510D1FB0346032BFAD9FFF70AFC00231993B5
S2140045200FE0FFF7C1FB0246199B9B0068336B4404
S21400453053F8583C5340189A13431893199B013369
S2140045401993199B032BECD9189B002B01D006233B
S21400455000E0002318461BB030BD00BF78F3020011
S214004560B8F30200C8F3020010B588B005AB83E8C4
S2140045700700FFF7A5FB034603F48073002B01D06A
S2140045801EF08AFA0C4B1B78002B04D01EF050FA53
S214004590094B00221A70069A084B02926C461A1DA6
S2140045A092E8030084E803001B6805AA07CA1EF009
S2140045B09FF800BF08B010BD6A270020D8F302009D
S2140045C000B585B00190019B002B0AD0FFF766FF6F
S2140045D00390039B002B04D00E4B01221A70062377
S2140045E014E0FFF7CDFB0820FFF776FB0020FFF76F
S2140045F07DFB0720FFF784FB4FF40070FFF78EFB70
S2140046000820FFF7DDFBFFF79BFB0023184605B0ED
S2140046105DF804FB6927002000B587B01EF008FA95
S2140046200590059B002B04D0114B01221A7006231F
S2140046301AE0FFF739FB03460193FFF735FB034605
S2140046400293FFF731FB03460393FFF72DFB034668
S214004650049301AB1846FFF7EBFB1EF01DFAFFF7BD
S21400466083FBFFF7A1FB0023184607B05DF804FBA9
S21400467069270020024B01221A7000BF704700BF56
S2140046806A27002082B003468DF807309DF8073071
S214004690052B1BD801A252F823F000BFB546000038
S2140046A0B9460000BD460000C1460000C5460000F1
S2140046B0C94600006C230AE05C2308E0542306E0A9
S2140046C0802304E0102302E0242300E000231846A1
S2140046D002B0704700B58BB0019000911F4B03935A
S2140046E0019B04931E4B059346F61103069300F0B8
S2140046F01FFA0990099B142B04D107AB18461EF02D
S214004700C6FA04E0099B002B01D0099B21E04FF07C
S214004710A84303225A634FF0A84203AB13604FF03E
S214004720A842009B13614FF0A84303229A6300BF80
S2140047304FF0A843DB6B03F00303002BF8D1099B73
S214004740142B03D107AB18461EF0B9FA00F020FA76
S214004750034618460BB05DF804FB00BFC81A0020DD
S2140047600400002010B5BAB00291019200930346EF
S2140047708DF80F308F4B31AC0FCB84E80F00409A8A
S214004780019B13445B4203F00F0337933D9B002BC2
S21400479004D03D9B5B4203F00F0300E010233693EA
S2140047A0419B2D9301232E93429B43F000532F935E
S2140047B0429BC3F110031B0203F4F85343F021039A
S2140047C030933D9B002B01D131AB00E0009B299339
S2140047D09DF80F3083F00103DBB2002B04D0429B20
S2140047E0002B01D02DAB00E001232A933D9B002B2C
S2140047F003D03D9B43F0005302E0369B43F000534A
S2140048002B939DF80F30002B02D1429B002B01D139
S214004810212200E00122369B1B0203F4F8531343C7
S2140048202C93029B259329AB2693019B43F00053C0
S2140048302793379B1B0203F4F85343F04103289356
S2140048403F9B2193019B002B01D025AB00E029ABB9
S2140048502293019B002B01D0002201E04FF0005272
S214004860409B13432393019B002B06D1379B1B02CF
S21400487003F4F85343F0410300E0412324933E9BA6
S2140048801D9321AB1E934C4B1F9340F611032093B0
S2140048909DF80F30002B01D0484B00E0484B199391
S2140048A01DAB1A93474B1B9311231C9315AB002289
S2140048B01A605A609A60DA6001231693429BC3F12D
S2140048C0100343F08043179311AB00221A605A601E
S2140048D09A60DA609DF80F3083F00103DBB2002B9C
S2140048E001D031AB00E0419B1193429B102B01D0CD
S2140048F015AB00E001231293429B13930DAB0022ED
S2140049001A605A609A60DA60429B002B01D011ABA5
S21400491000E001230E93369B43F080430F9309ABD0
S21400492000221A605A609A60DA603C9B0993369BB4
S214004930002B01D00DAB05E0429B002B01D011AB44
S21400494000E001230A933C9B002B02D14FF08042EB
S21400495000E000223D9B13430B9305AB00221A6038
S2140049605A609A60DA603D9B002B01D009AB00E0EC
S2140049700DAB0693409A019B1A44379B134443F0B1
S2140049808043079305AA19AB11461846FFF7A2FE07
S2140049903590359B002B01D0359B2BE09DF80F30D2
S2140049A083F00103DBB2002B23D0002339930023CE
S2140049B0389315E0ECF3020010000020E4F3020048
S2140049C0E8F302000400002031AA389B13441B7849
S2140049D0DBB21A46399B13433993389B013338931D
S2140049E0389A429B9A42EFD3399B002B01D02C2356
S2140049F000E0002318463AB010BD00BF00B5A3B0D3
S214004A000390029101920093029BB3F5807F0AD037
S214004A10029BB3F5807F1CD8029B802B0FD0029B95
S214004A20C02B0AD015E0249B002B02D040F2344362
S214004A3001E040F2144321930DE00F2358E0249B3D
S214004A40002B02D04FF4866301E04FF4826321937B
S214004A5001E029234CE0249B1D9301231E93102381
S214004A601F9321232093259B1993249B002B01D071
S214004A701DAB00E001231A9310231B9301231C9304
S214004A80019B159301231693102317932123189344
S214004A90194B119315AB1293184B139342F611034F
S214004AA01493009B0D9315AB0E9310230F9342F6B1
S214004AB01103109321AB0993009B002B01D00DAB83
S214004AC000E011AB0A9304230B9311230C93039B72
S214004AD0059309AB0693029BDB08079340F6110388
S214004AE0089319AA05AB11461846FFF7F3FD0346CF
S214004AF0184623B05DF804FB0CF40200100000100A
S214004B0000B583B0094B1B68002B04D1042107486D
S214004B1004F0B8F90190054B1B68013343F00043DD
S214004B20024A136000BF03B05DF804FBC81A0020F9
S214004B3008B5154B5B6E144A43F004035366124BDC
S214004B40D3F88032104A43F00103C2F880320F4B8C
S214004B505B68C3F30803002B09D000BF4FF0A843DF
S214004B60DB6B03F04303002BF8D114230AE000BFED
S214004B704FF0A843DB6B03F04303002BF8D1FFF79D
S214004B80BFFF0023184608BD0080005000ED00E07F
S214004B90054B5B68C3F30803002B01D0002300E03D
S214004BA000231846704700BF00ED00E0084B03F5F1
S214004BB080531A464FF400539366054B03F5805313
S214004BC01A460323C2F8603200231846704700BF17
S214004BD00080005008B500BF1EF0CAF8034683F0F8
S214004BE00103DBB2002BF7D1084B03F500531A463E
S214004BF04FF400539366054B03F500531A46032300
S214004C00C2F860320023184608BD00BF008000507E
S214004C1086B00190019BA3F50323A3F5807305934B
S214004C20059B5B090493049B5B01059AD31A0393C7
S214004C30074A049B52F823300121039A01FA02F234
S214004C401A430349049B41F8232000BF06B070476F
S214004C50CC1A002086B00190019BA3F50323A3F590
S214004C6080730593059B5B090493049B5B01059A7F
S214004C70D31A0393074A049B52F823300121039A60
S214004C8001FA02F25A400349049B41F8232000BF70
S214004C9006B07047CC1A002086B00190019BA3F5A1
S214004CA00323A3F580730593059B5B090493049B7C
S214004CB05B01059AD31A0393084A049B52F82320F3
S214004CC0039B22FA03F303F00103002B14BF012316
S214004CD00023DBB2184606B0704700BFCC1A00208F
S214004CE000B597B002AB4022002118462AF0DFF844
S214004CF01B4B159328E0159B10331493149B194AED
S214004D00934201D9174B1493174B186802A9149BAA
S214004D100093159B102229F02FFA1290002313936C
S214004D200BE0139B9B0058336B4453F8503C1846DB
S214004D30FFF76EFF139B01331393139A129B9A424D
S214004D40EFD3159B10331593159B084A9342D2D97F
S214004D50074B01221A7000BF17B05DF804FB00BFB6
S214004D600031080081310800680B002080310800FF
S214004D706B27002000B591B0059004910392029332
S214004D80039B002B02D0039B00221A60029B002B81
S214004D9002D0029B00221A60354B1868102300933D
S214004DA00023049A059914F041FE0F900F9B002BE8
S214004DB001D00F9B57E0049B1B682E4A93422AD1D2
S214004DC008AB00221A605A609A60DA601A615A616B
S214004DD0274B186808AA182300930023059914F097
S214004DE025FE0F900F9B002B01D00F9B3BE00C9AEB
S214004DF0049B5A60DDE90A230499C1E90223049B57
S214004E001D4A1A60039B002B02D0039B18221A60CF
S214004E101A4B0F9305E0039B002B02D0039B102236
S214004E201A60049B1B68144A934201D0144B1AE084
S214004E30039B002B16D0029B002B13D00C4B18683C
S214004E4007AA029B059914F045FE0E900E9B002BB8
S214004E5001D00E9B07E0029B1A68039B1B68D21AC0
S214004E60029B1A600F9B184611B05DF804FB00BF4A
S214004E70680B0020D175E105105D175EFEDF00F0BF
S214004E80FFDF00F000B58DB0CDE9020113468DF8C6
S214004E9007309DF80730002B1DD000230B9316E03B
S214004EA00B9B03F5032303F580731846FFF7F4FE08
S214004EB0034683F00103DBB2002B05D00B9B03F502
S214004EC0032303F580736EE00B9B01330B930B9B60
S214004ED0802BE5D966E0364B1B7B002B0BD0344B82
S214004EE0D3E90023DDE90201994208BF904202D1CE
S214004EF02F4B9B6857E000230A9350E00A9B03F56C
S214004F00032303F580731846FFF7C6FE034683F0B7
S214004F100103DBB2002B3CD10A9B03F5032303F508
S214004F208073099304A9002300220998FFF722FF43
S214004F300890089B002B03D0089B1E4A934214D16E
S214004F40DDE90623DDE90201994208BF904222D13D
S214004F50174B01221A73164A099B93601449DDE920
S214004F600223C1E90023099B1DE0089B124A9342D5
S214004F7003D0089B114A93420ED1114B1B68099926
S214004F80184614F0EDFD0890089B002B04D00D4B3E
S214004F9009E000BF00E000BF0A9B01330A930A9BAA
S214004FA0802BABD9074B18460DB05DF804FB00BF4D
S214004FB0A0100020FEDF00F0FFDF00F011E000F0A0
S214004FC0680B00208231080000B583B0CDE90001EF
S214004FD0FBF716FF0346002B01D00A4B0EE00A4BE8
S214004FE01B7883F00103DBB2002B01D0FFF778FEBD
S214004FF00022DDE90001FFF745FF0346184603B02F
S2140050005DF804FB823108006B27002000B58BB0EA
S214005010CDE9020101920093019B40F26C7293422B
S21400502002D96FF0910392E0019B002B05D0009B04
S214005030002B02D16FF0860389E00C9B012B05D074
S2140050400C9B002B02D06FF0850380E0DDE90201A7
S214005050FFF7BAFF099000230893019B0793079B6D
S2140050601033194601201EF0FDFB0690069B002B10
S21400507002D16FF08C036AE0079B10331A460021BA
S214005080069829F014FF069B0593099B324A934223
S21400509018D901224FF000004FF00001FFF7F2FE92
S2140050A00990099B2C4A934203D96FF08D0308930D
S2140050B022E00599DDE90223C1E90223059B274A80
S2140050C01A6019E00023002205990998FFF752FE9E
S2140050D00490049B002B07D0049B214A934203D0E4
S2140050E06FF09103089327E0059B5B68012B03D1C3
S2140050F06FF0840308931FE0059B0C9A5A60019B8F
S214005100002B06D0069B1033019A0099184629F00A
S214005110A7FE144B1868079B1033069A099914F0DB
S214005120EDFB0490049B002B03D10998FFF770FD5C
S21400513002E06FF091030893079B10331A46002194
S214005140069829F0B4FE06981EF0A1FB089B1846A8
S2140051500BB05DF804FB00BF81310800105D175EE0
S214005160FEDF00F0680B002000B591B0CDE9040129
S21400517003920293029B002B05D0139B002B02D1B7
S2140051806FF086038BE0029B002B11D0129B002B46
S2140051900BD0129BB3F1005F07D3029BC3F1005301
S2140051A003F50043129A934202D26FF0860376E02C
S2140051B0DDE90401FFF708FF0E900E9B3A4A934282
S2140051C002D96FF08B036AE008AB00221A605A60BF
S2140051D09A60DA60002307930023069307AB06AABB
S2140051E008A90E98FFF7C6FD0D900D9B2F4A934217
S2140051F002D16FF08B0352E00D9B002B06D00D9B67
S2140052002B4A934202D06FF0910348E0079B0C9321
S214005210029B002B12D0039A0C9B9A4205D30C9B40
S214005220002B02D06FF0860339E00C9B002B0CD1CC
S214005230039B002B09D06FF0860330E0039A0C9B8B
S2140052409A4202D96FF0860329E00C9A039BD31A80
S214005250029A9A4205D90C9A039BD21A139B1A609B
S21400526002E0139B029A1A606FF096030F93114B9D
S2140052701868069A039B1A44139B1B6800931346F0
S214005280129A0E9914F0D2FB0D900D9B002B03D0B2
S2140052906FF091030F9301E000230F930F9B1846C6
S2140052A011B05DF804FB00BF81310800FFDF00F09D
S2140052B0FEDF00F0680B002000B58DB0CDE90201DE
S2140052C00192019B002B02D16FF0860334E0DDE9EA
S2140052D00201FFF779FE0B900B9B194A934202D905
S2140052E06FF08B0328E006AB00221A605A609A60C3
S2140052F0DA60002305930023049305AB04AA06A9ED
S2140053000B98FFF737FD0A900A9B0E4A934202D18C
S2140053106FF08B0310E00A9B002B06D00A9B0A4A0C
S214005320934202D06FF0910306E0079A019B5A6001
S214005330059A019B1A60002318460DB05DF804FB21
S21400534081310800FFDF00F0FEDF00F000B58BB013
S214005350CDE90001DDE90001FFF736FE0990099B63
S214005360294A934202D96FF08B0348E004AB00222F
S2140053701A605A609A60DA6000230393002302934F
S21400538003AB02AA04A90998FFF7F4FC0890089B4F
S2140053901E4A934202D16FF08B0330E0089B002B2D
S2140053A006D0089B1A4A934202D06FF0910326E07B
S2140053B0059B012B02D16FF0840320E0154B1B6880
S2140053C00999184614F0CCFB0890089B002B14D1C2
S2140053D0114B1B7B002B0BD00F4BD3E90023DDE9D1
S2140053E00001994208BF904202D10B4B00221A736B
S2140053F00998FFF72FFC002301E06FF09103184691
S2140054000BB05DF804FB00BF81310800FFDF00F041
S214005410FEDF00F0680B0020A010002000B595B05D
S21400542007900691059204936FF083031393062367
S2140054301293069B002B17D0059B002B14D0189BAD
S214005440002B02D1199B002B0ED1169B002B02D1EC
S214005450179B002B08D11A9B002B02D11B9B002BFD
S21400546002D11C9B002B02D16FF08603A7E0049BA1
S214005470554A934227D107981DF0C6FC0346B3F55C
S214005480105F02D06FF0850399E007981DF0C3FC0B
S2140054900346DB08059A9A4212D307981DF0BBFC18
S2140054A00346802B12D007981DF0B5FC0346C02B90
S2140054B00CD007981DF0AFFC0346B3F5807F05D0EF
S2140054C06FF086037BE06FF0850378E000BF199BE2
S2140054D0002B04D11C9B00221A6000236FE01A9A4E
S2140054E0189B9A4213D9189A199B13441A9A9A42EF
S2140054F00DD21B9A199B9A4202D26FF086035EE089
S214005500199A18991A9829F0B8FC1A9B1893049BB4
S2140055102D4A934251D11B9A199B9A4202D26FF0A0
S21400552089034CE0199B03F00F03002B02D06FF0A9
S214005530860344E06B46059A069918461DF04DFC16
S2140055400FAB6A4607CA83E807006B46199A189994
S21400555018461DF042FC0CAB6A4607CA83E80700F3
S2140055606B46199A1A9918461DF037FC09AB6A461D
S21400557007CA83E80700FFF719FB1390139B002B5D
S21400558002D06FF092031AE009AA0CA90FAB1846D6
S214005590FEF798FD1290FFF71DFB1390129B002B51
S2140055A002D1139B002B02D06FF0920307E01C9BE6
S2140055B0199A1A6000BF002301E06FF085031846B1
S2140055C015B05DF804FB00BF0044400410B5B0B051
S2140055D00D900C910B920A930C9B002B0BD00B9BFF
S2140055E0002B08D0329B002B05D0349B002B02D01A
S2140055F0369B002B02D16FF08603D6E06FF0960341
S2140056002F9306232E9300232D93694A28AB07CAAF
S21400561083E807000023189319AB3C2200211846A4
S21400562029F045FC0C981DF01BFC2C900C981DF0E6
S21400563010FC0346ADF8AE30BDF8AE3003F4E043E0
S214005640B3F5804F02D16FF08603AEE00D9A594B4A
S214005650134043F01063584A934202D06FF085031C
S214005660A3E02C9BB3F5807F20D1BDF8AE3047F287
S2140056701212934217D1514BDB682D934F4B19688A
S2140056804E4B1A6913465B0013445B001A4628AB60
S21400569018461DF0C7FB00BF2C9B0733DB080A9A91
S2140056A09A420ED305E06FF085037EE06FF0850327
S2140056B07BE02C9B0733DB085B000133339A9A426E
S2140056C002D26FF0860370E02C9B0733DB08359A16
S2140056D09A4202D26FF0890367E02C9B0733DA0800
S2140056E015AB0B9918461DF09DFB329B591C2C9B45
S2140056F00733DB085A0012AB18461DF093FB2C9BB1
S2140057000733DB085A000FAB18A918461DF08AFBB2
S214005710329B1B78042B02D06FF0860345E0FFF720
S21400572045FA2F902F9B002B01D02F9B3DE02C9B02
S2140057300733DB082D9A0992089305AC0FAB93E864
S214005740070084E8070002AC12AB93E8070084E881
S21400575007006A4616AB93E8030082E80300159B31
S21400576028AA07CAFEF714FE2E90FFF733FA2F90EA
S2140057702E9B002B02D12F9B002B02D06FF08603AE
S21400578013E02C9B0733DA0818AB1946349829F037
S21400579067FB18AB40220021184629F088FB2C9B9B
S2140057A00733DA08369B1A600023184630B010BD5F
S2140057B090F202000000FFF60000020964F3020007
S2140057C000B595B00790069105920493079B002BB1
S2140057D008D0069B002B05D0059B002B02D0049B0F
S2140057E0002B02D16FF0860394E007981DF056FB5D
S2140057F00346ADF84E30BDF84E3023F4435323F045
S2140058003F03B3F5824F03D1BDF84E30DBB200E064
S21400581000238DF84D3007981DF047FB1290BDF819
S2140058204E3023F0FF03B3F5E24F02D06FF085034E
S21400583070E09DF84D30122B06D09DF84D30172B9A
S21400584002D06FF0850365E0129B0733DB08059AEC
S2140058509A4202D26FF089035CE0304A0DAB07CA69
S21400586083E80700129BB3F5807F1ED19DF84D306C
S214005870122B0BD12A4B1A68294B1B69D118284BBF
S2140058801A690DAB18461DF0F2FA00BF129B0733DB
S214005890DA080AAB069918461DF0E9FA1DF083FAF5
S2140058A01190119B002B03D104E06FF0850331E0CB
S2140058B0119B2FE0FFF77AF91190119B002B01D076
S2140058C0119B27E000230893164B099302AA08AB06
